S01500006669726D776172655F617070732E737265639F
S315080050000000022079520008415200084352000865
S31508005010455200084752000849520008000000009F
S315080050200000000000000000000000004B520008CD
S315080050304D520008000000004F5200085152000867
S31508005040C9520008C9520008C9520008C9520008C6
S31508005050C9520008C9520008C9520008C9520008B6
S31508005060C9520008C9520008C9520008C9520008A6
S31508005070C9520008C9520008C9520008C952000896
S31508005080C9520008C9520008C9520008C952000886
S31508005090C9520008C9520008C9520008C952000876
S315080050A0C9520008C9520008C9520008C952000866
S315080050B0C9520008C9520008C9520008C952000856
S315080050C0C9520008C9520008C9520008C952000846
S315080050D0C9520008C9520008C9520008C952000836
S315080050E055520008C9520008C9520008C95200089A
S315080050F0C9520008C9520008C9520008C952000816
S31508005100C9520008C9520008C9520008C952000805
S31508005110C9520008C9520008C9520008C9520008F5
S31508005120C9520008C9520008C9520008C9520008E5
S31508005130C9520008C9520008C9520008C9520008D5
S31508005140C9520008C9520008C9520008C9520008C5
S31508005150C9520008C9520008C9520008C9520008B5
S31508005160C9520008C9520008C9520008C9520008A5
S31508005170C9520008C9520008C9520008C952000895
S31508005180C9520008C9520008C9520008C952000885
S31508005190C952000800000000C9520008C952000898
S315080051A0C9520008C9520008C9520008C952000865
S315080051B0C9520008C9520008C9520008C952000855
S315080051C0C9520008C9520008C9520008C952000845
S30D080051D0C9520008C952000883
S315080051D810B5054C237833B9044B13B10448AFF31B
S315080051E800800123237010BD040000200000000081
S315080051F85853000808B5034B1BB103490348AFF3D6
S31508005208008008BD00000000080000205853000868
S315080052184FF0E02408B5074B63610023A361052313
S3150800522823612369DB03FCD520214FF0904000F069
S3150800523855F8F6E7FFE0F505FEE7FEE7FEE7FEE7C1
S31508005248FEE770477047704700F03CB84FF40050C7
S3150800525800F04EB8044BD3F8882042F47002C3F81D
S315080052688820024A9A60704700ED00E0005000085E
S315080052780D488546FFF7EEFF0C480D490D4A0023F1
S3150800528802E0D458C4500433C4188C42F9D30A4AE5
S315080052980A4C002301E013600432A242FBD300F053
S315080052A833F8FFF7B5FFFEE70000022000000020EC
S315080052B80400002078530008040000202400002079
S315080052C8FEE70000034A0449136809680B4413609B
S315080052D8704700BF2000002000000020436901EA4B
S315080052E8030221EA030141EA0241816170477047D6
S315080052F8044A5169014208B502D05061FFF7F7FF21
S3150800530808BD00BF0004014070B50D4D0D4C641B67
S31508005318A4100026A64209D10B4D0C4C00F018F82B
S31508005328641BA4100026A64205D170BD55F8043B97
S3150800533898470136EEE755F8043B98470136F2E7F1
S315080053487053000870530008705300087453000817
S31508005358F8B500BFF8BC08BC9E467047F8B500BF4C
S30D08005368F8BC08BC9E4670471C
S30908005370FD510008D5
S30908005374D9510008F5
S309080053780100000022
S7050800527927
