S0150000706F7765725F6D616E616765722E73726563A8
S31508005000000002201D5F0008155F0008155F0008F4
S31508005010155F0008155F0008155F0008000000000E
S31508005020000000000000000000000000155F0008F6
S31508005030155F000800000000155F000859650008A4
S31508005040155F0008155F0008155F0008155F000862
S31508005050155F0008155F0008155F0008155F000852
S31508005060155F0008155F0008155F0008155F000842
S31508005070155F0008155F0008155F0008155F000832
S31508005080155F0008155F0008155F0008155F000822
S31508005090155F0008155F0008155F0008155F000812
S315080050A0155F0008155F0008155F0008155F000802
S315080050B0155F0008155F0008155F0008155F0008F2
S315080050C0155F0008155F0008155F0008155F0008E2
S315080050D0155F0008155F0008155F0008155F0008D2
S315080050E0DD530008155F0008155F0008155F000806
S315080050F0155F0008155F0008155F0008155F0008B2
S31508005100155F0008155F0008155F0008155F0008A1
S31508005110155F0008155F0008155F0008155F000891
S31508005120155F0008155F0008155F0008155F000881
S31508005130155F0008155F0008155F0008155F000871
S31508005140155F0008155F0008155F0008155F000861
S31508005150155F0008155F0008155F0008155F000851
S31508005160155F0008155F0008155F0008155F000841
S31508005170155F0008155F0008155F0008155F000831
S31508005180155F0008155F0008155F0008155F000821
S31508005190155F000800000000155F0008155F00088D
S315080051A0155F0008155F0008155F0008A15A00087A
S315080051B0155F0008155F0008155F0008155F0008F1
S315080051C0155F0008155F0008155F0008155F0008E1
S30D080051D0155F0008155F0008D1
S315080051D880B483B000AF0346FB7197F90730002BFC
S315080051E80BDBFB7903F01F02064997F907305B09C1
S315080051F8012000FA02F241F8232000BF0C37BD4609
S3150800520880BC704700E100E080B483B000AF034675
S315080052183960FB7197F90730002B0ADB3B68DAB26D
S315080052280C4997F907301201D2B20B4483F80023C8
S315080052380AE03B68DAB20849FB7903F00F03043B36
S315080052481201D2B20B441A7600BF0C37BD4680BC91
S31508005258704700BF00E100E000ED00E080B48BB0C5
S3150800526800AFF860B9607A60FB681A68BB687B614A
S315080052787B6993FAA3F33B613B69BB61BB69002B66
S3150800528801D1202303E0BB69B3FA83F3DBB25B00E1
S31508005298032101FA03F3DB431A40BB683B623B6A06
S315080052A893FAA3F3FB61FB697B627B6A002B01D146
S315080052B8202303E07B6AB3FA83F3DBB25B007968E1
S315080052C801FA03F31A43FB681A6000BF2C37BD4678
S315080052D880BC704780B485B000AF7860084BDA6C3C
S315080052E807497B681343CB64054BDA6C7B68134024
S315080052F8FB60FB6800BF1437BD4680BC704700BF1B
S315080053080010024080B500AF00F00DF800F018F85C
S3150800531800F026F808212820FFF776FF2820FFF74F
S3150800532857FF00BF80BD80B500AF0120FFF7D2FF49
S31508005338012220214FF09040FFF790FF00BF80BD63
S3150800534880B500AF0420FFF7C5FF00224FF40051CF
S315080053580248FFF783FF00BF80BD00BF000800486A
S3150800536880B400AF0D4B5B690C4A43F020035361C8
S315080053780B4B9B680A4A43F400539360084BDB6857
S31508005388074A43F40053D360054B1B68044A43F4A1
S315080053980053136000BFBD4680BC7047000001403B
S315080053A80004014080B500AF074B1B6903F400539E
S315080053B8002B03D0054801F003F902E0044801F080
S315080053C8FFF800BF80BD00BF0008004868670008EE
S315080053D87067000880B500AF064B5B6903F4005395
S315080053E8002B05D0034B4FF400525A61FFF7DAFF3A
S315080053F800BF80BD0004014080B483B000AF0346F7
S31508005408FB7197F90730002B0BDBFB7903F01F02BA
S31508005418064997F907305B09012000FA02F241F8B4
S31508005428232000BF0C37BD4680BC704700E100E06A
S3150800543880B483B000AF03463960FB7197F907302B
S31508005448002B0ADB3B68DAB20C4997F907301201D8
S31508005458D2B20B4483F800230AE03B68DAB208495B
S31508005468FB7903F00F03043B1201D2B20B441A76F8
S3150800547800BF0C37BD4680BC704700BF00E100E09E
S3150800548800ED00E080B483B000AF78607B681B68E5
S3150800549843F001027B681A6000BF0C37BD4680BC22
S315080054A8704780B483B000AF78607B681B6823F0C8
S315080054B801027B681A6000BF0C37BD4680BC70477E
S315080054C880B489B000AF786039607B68FB60FB6898
S315080054D853E8003FBB60BB6823F00C033A681343E4
S315080054E8FB617B68FA69BA617B617969BA6941E8DF
S315080054F800233B613B69002BE7D100BF00BF243777
S31508005508BD4680BC704780B489B000AF78607B68B8
S31508005518FB60FB6853E8003FBB60BB6843F02003A9
S31508005528FB617B68FA69BA617B617969BA6941E89E
S3150800553800233B613B69002BE9D100BF00BF243734
S31508005548BD4680BC704780B489B000AF78607B6878
S31508005558FB60FB6853E8003FBB60BB6843F08043C9
S31508005568FB617B68FA69BA617B617969BA6941E85E
S3150800557800233B613B69002BE9D100BF00BF2437F4
S31508005588BD4680BC704780B489B000AF78607B6838
S31508005598FB60FB6853E8003FBB60BB6823F08043A9
S315080055A8FB617B68FA69BA617B617969BA6941E81E
S315080055B800233B613B69002BE9D100BF00BF2437B4
S315080055C8BD4680BC704780B48BB000AFF860B96040
S315080055D87A60FB681A68BB687B617B6993FAA3F3F0
S315080055E83B613B69BB61BB69002B01D1202303E002
S315080055F8BB69B3FA83F3DBB25B00032101FA03F351
S31508005608DB431A40BB683B623B6A93FAA3F3FB6128
S31508005618FB697B627B6A002B01D1202303E07B6A46
S31508005628B3FA83F3DBB25B00796801FA03F31A432A
S31508005638FB681A6000BF2C37BD4680BC704780B42B
S3150800564885B000AFF860B9607A60FB685A68BB68CD
S31508005658DB431A40BB68796801FB03F31A43FB6806
S315080056685A6000BF1437BD4680BC704780B48BB0FB
S3150800567800AFF860B9607A60FB689A68BB687B61B6
S315080056887B6993FAA3F33B613B69BB61BB69002B52
S3150800569801D1202303E0BB69B3FA83F3DBB25B00CD
S315080056A8032101FA03F3DB431A40BB683B623B6AF2
S315080056B893FAA3F3FB61FB697B627B6A002B01D132
S315080056C8202303E07B6AB3FA83F3DBB25B007968CD
S315080056D801FA03F31A43FB689A6000BF2C37BD46E4
S315080056E880BC704780B48BB000AFF860B9607A6048
S315080056F8FB68DA68BB687B617B6993FAA3F33B614D
S315080057083B69BB61BB69002B01D1202303E0BB6958
S31508005718B3FA83F3DBB25B00032101FA03F3DB4335
S315080057281A40BB683B623B6A93FAA3F3FB61FB69C1
S315080057387B627B6A002B01D1202303E07B6AB3FADC
S3150800574883F3DBB25B00796801FA03F31A43FB6853
S31508005758DA6000BF2C37BD4680BC704780B48BB072
S3150800576800AFF860B9607A60FB681A6ABB687B6143
S315080057787B6993FAA3F33B613B69BB61BB69002B61
S3150800578801D1202303E0BB69B3FA83F3DBB29B009C
S315080057980F2101FA03F3DB431A40BB683B623B6AF5
S315080057A893FAA3F3FB61FB697B627B6A002B01D141
S315080057B8202303E07B6AB3FA83F3DBB29B0079689C
S315080057C801FA03F31A43FB681A6200BF2C37BD4671
S315080057D880BC704780B483B000AF7860074BD3F8B5
S315080057E8883023F4406205497B681343C1F888303A
S315080057F800BF0C37BD4680BC704700BF001002408A
S3150800580880B485B000AF7860084BDA6C07497B68C6
S315080058181343CB64054BDA6C7B681340FB60FB6863
S3150800582800BF1437BD4680BC704700BF0010024051
S3150800583880B485B000AF7860084BDA6D07497B6895
S315080058481343CB65054BDA6D7B681340FB60FB6831
S3150800585800BF1437BD4680BC704700BF0010024021
S3150800586880B500AF0120FFF7CBFF022204214FF0D5
S315080058789040FFF7A8FE002204214FF09040FFF75A
S31508005888DEFE002204214FF09040FFF7EFFE0022CB
S3150800589804214FF09040FFF725FF0C2204214FF012
S315080058A89040FFF75BFF022208214FF09040FFF770
S315080058B88AFE002208214FF09040FFF7C0FE00221A
S315080058C808214FF09040FFF7D1FE002208214FF03B
S315080058D89040FFF707FF0C2208214FF09040FFF78A
S315080058E83DFF00BF80BD000080B500AF1548FFF733
S315080058F8D8FD0020FFF76EFF0120FFF799FF114B2F
S315080059084DF60412DA600C210E48FFF7D9FD0D4B47
S315080059181B680C4A43F0005313600A48FFF7F3FD67
S31508005928084B9B68074A43F00103936007215B20ED
S31508005938FFF77EFD5B20FFF75FFD0248FFF7A2FD34
S3150800594800BF80BD0080004080B500AFFFF788FF24
S31508005958FFF7CAFF7F220549054800F050FE7F2257
S315080059680449054800F04BFE00BF80BD0C00002026
S315080059788C000020A00000202001002080B584B0FB
S3150800598800AF78600B46FB700023FB730023BB73DC
S31508005998FB78002B20D0FB781A467968104800F067
S315080059A854FE0DE007F10E0307F10F0101220C481A
S315080059B800F093FEBB7B002B09D0FA7B094B9A6251
S315080059C8084BDB6903F08003002BEBD100E000BF2E
S315080059D80448FFF7B8FD00E000BF1037BD4680BD94
S315080059E8200100200080004080B582B000AF002367
S315080059F8FB710023BB71BB1DF91D0122144800F079
S31508005A086CFEBB79002B18D0FA79124B9A62114BA7
S31508005A18DB6903F08003002B13D0BB1DF91D012297
S31508005A280B4800F05AFEBB79002B0CD0FA79094BC3
S31508005A389A62BB79002BEAD106E00648FFF7A3FD70
S31508005A4802E000BF00E000BF00BF0837BD4680BDC2
S31508005A58200100200080004080B582B000AF074BC7
S31508005A685B6ADBB2FB71FB1D01221946044800F08C
S31508005A78ECFD00BF0837BD4680BD00BF008000406A
S31508005A888C00002080B400AF024B1846BD4680BC87
S31508005A98704700BF8C00002080B500AF1A4BDB6941
S31508005AA803F02003002B01D0FFF7D6FF164BDB695E
S31508005AB803F40003002B01D0FFF796FF124BDB69AE
S31508005AC803F00803002B05D00F4B1B6A0E4A43F058
S31508005AD8080313620C4BDB6903F00403002B05D09B
S31508005AE8094B1B6A084A43F004031362064BDB6931
S31508005AF803F00203002B05D0034B1B6A024A43F046
S31508005B080203136200BF80BD0080004080B483B0E2
S31508005B1800AF78607B684CF6CC421A6000BF0C3739
S31508005B28BD4680BC704780B483B000AF78607B6898
S31508005B3845F255521A6000BF0C37BD4680BC7047FF
S31508005B4880B483B000AF786039603B6803F0070219
S31508005B587B685A6000BF0C37BD4680BC704700009A
S31508005B6880B500AF0548FFF7DEFF02210348FFF7B7
S31508005B78E7FF0248FFF7CAFF00BF80BD00300040B4
S31508005B8880B400AF034B9B6803F00C031846BD4668
S31508005B9880BC70470010024080B400AF034B9B6876
S31508005BA803F0F0031846BD4680BC70470010024053
S31508005BB880B400AF034B9B6803F4E0631846BD4600
S31508005BC880BC70470010024080B400AF034B9B6846
S31508005BD803F460531846BD4680BC7047001002405F
S31508005BE880B400AF034BDB6803F003031846BD46D1
S31508005BF880BC70470010024080B400AF044BDB68D5
S31508005C081B0A03F07F031846BD4680BC704700BFD1
S31508005C180010024080B400AF034BDB6803F0C06392
S31508005C281846BD4680BC70470010024080B400AFD5
S31508005C38034BDB6803F0F0031846BD4680BC704783
S31508005C480010024080B582B000AF786000F020F8F6
S31508005C5802467B681A607B681B68184600F03EF89F
S31508005C6802467B685A607B685B68184600F04EF8FF
S31508005C7802467B689A607B685B68184600F05CF8A1
S31508005C8802467B68DA6000BF0837BD4680BD00005B
S31508005C9880B582B000AFFFF773FF03460C2B0CD014
S31508005CA80C2B0ED8042B02D0082B03D009E0094B7D
S31508005CB87B6009E0084B7B6006E000F053F87860E3
S31508005CC802E0044B7B6000BF7B6818460837BD4670
S31508005CD880BD00BF0024F40000366E0180B582B08E
S31508005CE800AF7860FFF758FF03461B0903F00F0358
S31508005CF8054AD35C03F01F037A6822FA03F31846A9
S31508005D080837BD4680BD00BF7867000880B582B0F1
S31508005D1800AF7860FFF74CFF03461B0A054AD35CB9
S31508005D2803F01F037A6822FA03F318460837BD46B4
S31508005D3880BD00BF8867000880B582B000AF78606C
S31508005D48FFF742FF0346DB0A054AD35C03F01F0345
S31508005D587A6822FA03F318460837BD4680BD00BF9D
S31508005D688867000890B583B000AFFFF739FF386039
S31508005D783B68022B03D03B68032B03D005E0114B85
S31508005D887B6005E0104B7B6002E00E4B7B6000BF32
S31508005D98FFF732FF02467B6803FB02F4FFF746FF6C
S31508005DA803461B090133B4FBF3F4FFF733FF034635
S31508005DB85B0E01335B00B4FBF3F318460C37BD469C
S31508005DC890BD00BF0024F40000366E0180B483B08D
S31508005DD800AF7860034A7B68136000BF0C37BD467E
S31508005DE880BC70470000002080B400AF034B044A0B
S31508005DF89A6000BFBD4680BC704700BF00ED00E052
S31508005E080050000880B500AF00F0F6FA0548FFF71D
S31508005E1819FFFFF777FAFFF797FDFFF7A1FE00BF0F
S31508005E2880BD00BF3401002080B483B000AF78601D
S31508005E387B684AF6AA221A6000BF0C37BD4680BCA2
S31508005E48704780B485B000AF786039607B685B6955
S31508005E58FB60FA683B6813401A04FB68D9433B6839
S31508005E680B401A437B689A6100BF1437BD4680BC4D
S31508005E787047000080B588B000AFFFF7C3FF00F091
S31508005E88ABFAF861FB69BB61FFF7FCFD786100F0C6
S31508005E98A3FA0246FB69D31A3B613B69642B0AD904
S31508005EA800F09AFAF86120214FF09040FFF7C9FFF1
S31508005EB81548FFF7B9FF00F08FFA0246BB69D31AEF
S31508005EC83B613B690A2BE2D900F086FAB861FB1DEB
S31508005ED807F108010122786900F0FFFBFB79002B1E
S31508005EE8D5D03B7A6C2B07D120214FF09040FFF78D
S31508005EF8A8FF6F23BB7101E03B7ABB71BB1D01216B
S31508005F081846FFF73BFDC2E70030004080B400AFF3
S31508005F18FEE7000080B586B000AF1C4A1C4BD31AB2
S31508005F287B601B4B7B611B4B3B610023FB600AE0D4
S31508005F383A69531C3B617B69591C796112781A7056
S31508005F48FB680133FB60FA687B689A42F0D3124A09
S31508005F58124BD31A7B60114B7B610023BB6007E0A9
S31508005F687B695A1C7A6100221A70BB680133BB60C8
S31508005F78BA687B689A42F3D3FFF736FF00F036FA19
S31508005F88FFF778FF00BF1837BD4680BD0C00002014
S31508005F980000002090670008480100200C00002037
S31508005FA880B485B000AF78607B6803F00703FB60B0
S31508005FB80C4BDB68BB60BA684FF6FF031340BB603F
S31508005FC8FB681A02BB68134343F0BF6343F4003304
S31508005FD8BB60044ABB68D36000BF1437BD4680BCA3
S31508005FE8704700BF00ED00E080B400AF044BDB68E3
S31508005FF81B0A03F007031846BD4680BC704700BF56
S3150800600800ED00E080B483B000AF03463960FB7149
S3150800601897F90730002B0ADB3B68DAB20C4997F97F
S3150800602807301201D2B20B4483F800230AE03B6812
S31508006038DAB20849FB7903F00F03043B1201D2B21E
S315080060480B441A7600BF0C37BD4680BC704700BFA4
S3150800605800E100E000ED00E080B489B000AFF86028
S31508006068B9607A60FB6803F00703FB61FB69C3F153
S315080060780703042B28BF0423BB61FB690433062BDB
S3150800608802D9FB69033B00E000237B614FF0FF322E
S31508006098BB6902FA03F3DA43BB681A407B699A407C
S315080060A84FF0FF317B6901FA03F3D9437B680B404C
S315080060B8134318462437BD4680BC704780B582B05E
S315080060C800AF78607B68013BB3F1807F01D3012379
S315080060D80FE00A4A7B68013B53600F214FF0FF30F7
S315080060E8FFF790FF054B00229A60044B07221A60B7
S315080060F8002318460837BD4680BD00BF10E000E0FB
S3150800610880B485B000AF7860084B9A6D07497B68FC
S3150800611813438B65054B9A6D7B681340FB60FB68D8
S3150800612800BF1437BD4680BC704700BF0010024048
S3150800613880B485B000AF7860084B1A6E07497B684B
S3150800614813430B66054B1A6E7B681340FB60FB68A6
S3150800615800BF1437BD4680BC704700BF0010024018
S3150800616880B483B000AF7860064B1B6823F00F0233
S3150800617804497B6813430B6000BF0C37BD4680BCD7
S31508006188704700BF0020024080B400AF034B1B686D
S3150800619803F00F031846BD4680BC7047002002402E
S315080061A880B400AF054BD3F88030044A23F48073D3
S315080061B8C2F8803000BFBD4680BC704700700040FA
S315080061C880B400AF044B9B68034A43F4804393604A
S315080061D800BFBD4680BC70470070004080B400AF61
S315080061E8044B1B68034A43F48033136000BFBD465B
S315080061F880BC70470010024080B400AF064B1B688D
S3150800620803F40033B3F5003F01D1012300E000236E
S315080062181846BD4680BC70470010024080B400AFDF
S31508006228044B1B68034A43F48073136000BFBD46DA
S3150800623880BC70470010024080B400AF064B1B684C
S3150800624803F48063B3F5806F01D1012300E00023CE
S315080062581846BD4680BC70470010024080B483B01B
S3150800626800AF7860064B5B6823F0FE427B681B0626
S31508006278034913434B6000BF0C37BD4680BC7047C3
S315080062880010024080B483B000AF7860064B9B6864
S3150800629823F0030204497B6813438B6000BF0C375D
S315080062A8BD4680BC704700BF0010024080B400AFEE
S315080062B8034B9B6803F00C031846BD4680BC704721
S315080062C80010024080B483B000AF7860064B9B6824
S315080062D823F0F00204497B6813438B6000BF0C3730
S315080062E8BD4680BC704700BF0010024080B483B02A
S315080062F800AF7860064B9B6823F4E06204497B6824
S3150800630813438B6000BF0C37BD4680BC704700BF7F
S315080063180010024080B483B000AF7860064B9B68D3
S3150800632823F4605204497B6813438B6000BF0C371B
S31508006338BD4680BC704700BF0010024080B400AF5D
S31508006348044B1B68034A43F08073136000BFBD46BD
S3150800635880BC70470010024080B400AF064B1B682B
S3150800636803F00073B3F1007F01D1012300E0002395
S315080063781846BD4680BC70470010024080B485B0F8
S3150800638800AFF860B9607A603B600A4BDA680A4B76
S315080063981340F968BA6811437A68120211433A68D1
S315080063A80A4304491343CB6000BF1437BD4680BC73
S315080063B8704700BF001002400C80FFF980B400AF98
S315080063C8044BDB68034A43F08073D36000BFBD46BD
S315080063D880BC70470010024080B400AF024B1B68AF
S315080063E81846BD4680BC70474401002080B400AFFB
S315080063F800BFBD4680BC704780B500AF00F00AF8FC
S315080064080320FFF7CDFD00F09DF800F065F800BF02
S3150800641880BD000080B500AF0120FFF789FE4FF068
S315080064288050FFF76DFEFFF7CBFE0420FFF798FEB6
S3150800643800BFFFF7A9FE0346042BFAD1244BD3F86D
S31508006448803003F48073002B05D08020FFF73AFFCD
S3150800645800BFFFF7A5FEFFF7C1FE00BFFFF7CCFE9A
S315080064680346012BFAD1FFF7D9FE00BFFFF7E4FE72
S315080064780346012BFAD14020FFF7F0FE0023192224
S3150800648820210320FFF77AFFFFF798FFFFF756FF4B
S3150800649800BFFFF761FF0346012BFAD10320FFF778
S315080064A8F1FE00BFFFF702FF03460C2BFAD10020C6
S315080064B8FFF708FF4FF4A060FFF718FF4FF42050C6
S315080064C8FFF728FF0348FFF781FC00BF80BD00BF20
S315080064D80070004000E1F50580B584B000AF0F23D1
S315080064E8FB60154B1A68154B1B7819464FF47A73D7
S315080064F8B3FBF1F3B2FBF3F3BB60B868FFF7DEFD55
S315080065080346002B14D1FB680F2B12D8FFF76CFD36
S3150800651878600022F9687868FFF79EFD03461946F1
S315080065284FF0FF30FFF76EFD054AFB68136000E081
S3150800653800BF1037BD4680BD0000002008000020B7
S315080065480400002080B400AF00BFBD4680BC704779
S3150800655880B400AF054B1B781A46054B1B681344D5
S31508006568034A136000BFBD4680BC70470800002078
S315080065784401002080B483B000AF78604FF06043D0
S31508006588D3F8803E03F00103002B13D04FF0604385
S31508006598D3F8003E03F00103002B0BD000E000BF40
S315080065A84FF060431B68002BF9D04FF060437A68B8
S315080065B8D2B21A707B6818460C37BD4680BC70473D
S315080065C880B584B000AF78600023FB730DE07B6864
S315080065D81B78002B0ED07B685A1C7A601B781846E5
S315080065E8FFF7C8FFFB7B0133FB7397F90F30002BC6
S315080065F8EDDA00E000BF00BF1037BD4680BD80B4A5
S3150800660885B000AFF860B9601346FB71FB68002BCC
S3150800661814D0BB68002B13D0FB68FA791A70FB688C
S31508006628BA685A60FB79BA681A44FB689A60FB68C4
S31508006638BA68DA60FB68BA681A6102E000BF00E067
S3150800664800BF1437BD4680BC704780B485B000AF1C
S31508006658F860B9601346FB71FB68002B36D0BB6837
S31508006668002B35D02EE0FB681B69BA6812781A70B9
S31508006678FB681B695A1CFB681A61BB680133BB6057
S31508006688FB79013BFB71FB681A69FB689B689A42B0
S3150800669803D1FB685A68FB681A61FB681A69FB68C4
S315080066A8DB689A420ED1FB68DB685A1CFB68DA601D
S315080066B8FB68DA68FB689B689A4203D1FB685A68E4
S315080066C8FB68DA60FB79002BCDD102E000BF00E059
S315080066D800BF1437BD4680BC704780B485B000AF8C
S315080066E8F860B9603B601346FB713B6800221A7074
S315080066F8FB68002B2DD0BB68002B2CD01FE0FB684D
S31508006708DB681A78BB681A703B681B780133DAB2FB
S315080067183B681A70FB68DB685A1CFB68DA60BB685A
S315080067280133BB60FB79013BFB71FB68DA68FB68E0
S315080067389B689A4203D1FB685A68FB68DA60FB795A
S31508006748002B09D0FB68DA68FB681B699A42D6D120
S3150800675802E000BF00E000BF1437BD4680BC7047A2
S315080067684F4E0D0A000000004F46460D0A0000006D
S3150800677800000000000000000102030406070809DB
S30D080067880000000001020304F1
S311080067900024F4001000000001000000C6
S70508005F1D76
